{
  "contractName": "ContractA",
  "abi": [
    {
      "inputs": [
        {
          "internalType": "address",
          "name": "_token",
          "type": "address"
        }
      ],
      "stateMutability": "nonpayable",
      "type": "constructor"
    },
    {
      "inputs": [],
      "name": "token",
      "outputs": [
        {
          "internalType": "contract IERC20",
          "name": "",
          "type": "address"
        }
      ],
      "stateMutability": "view",
      "type": "function"
    },
    {
      "inputs": [
        {
          "internalType": "uint256",
          "name": "amount",
          "type": "uint256"
        }
      ],
      "name": "deposit",
      "outputs": [],
      "stateMutability": "nonpayable",
      "type": "function"
    },
    {
      "inputs": [
        {
          "internalType": "uint256",
          "name": "amount",
          "type": "uint256"
        }
      ],
      "name": "withdraw",
      "outputs": [],
      "stateMutability": "nonpayable",
      "type": "function"
    }
  ],
  "bytecode": "0x608060405234801561001057600080fd5b506040516105263803806105268339818101604052810190610032919061008d565b806000806101000a81548173ffffffffffffffffffffffffffffffffffffffff021916908373ffffffffffffffffffffffffffffffffffffffff160217905550506100ff565b600081519050610087816100e8565b92915050565b60006020828403121561009f57600080fd5b60006100ad84828501610078565b91505092915050565b60006100c1826100c8565b9050919050565b600073ffffffffffffffffffffffffffffffffffffffff82169050919050565b6100f1816100b6565b81146100fc57600080fd5b50565b6104188061010e6000396000f3fe608060405234801561001057600080fd5b50600436106100415760003560e01c80632e1a7d4d14610046578063b6b55f2514610062578063fc0c546a1461007e575b600080fd5b610060600480360381019061005b9190610277565b61009c565b005b61007c60048036038101906100779190610277565b61014d565b005b610086610200565b604051610093919061032d565b60405180910390f35b60008054906101000a900473ffffffffffffffffffffffffffffffffffffffff1673ffffffffffffffffffffffffffffffffffffffff1663a9059cbb33836040518363ffffffff1660e01b81526004016100f7929190610304565b602060405180830381600087803b15801561011157600080fd5b505af1158015610125573d6000803e3d6000fd5b505050506040513d601f19601f82011682018060405250810190610149919061024e565b5050565b60008054906101000a900473ffffffffffffffffffffffffffffffffffffffff1673ffffffffffffffffffffffffffffffffffffffff166323b872dd3330846040518463ffffffff1660e01b81526004016101aa939291906102cd565b602060405180830381600087803b1580156101c457600080fd5b505af11580156101d8573d6000803e3d6000fd5b505050506040513d601f19601f820116820180604052508101906101fc919061024e565b5050565b60008054906101000a900473ffffffffffffffffffffffffffffffffffffffff1681565b600081519050610233816103b4565b92915050565b600081359050610248816103cb565b92915050565b60006020828403121561026057600080fd5b600061026e84828501610224565b91505092915050565b60006020828403121561028957600080fd5b600061029784828501610239565b91505092915050565b6102a981610348565b82525050565b6102b881610390565b82525050565b6102c781610386565b82525050565b60006060820190506102e260008301866102a0565b6102ef60208301856102a0565b6102fc60408301846102be565b949350505050565b600060408201905061031960008301856102a0565b61032660208301846102be565b9392505050565b600060208201905061034260008301846102af565b92915050565b600061035382610366565b9050919050565b60008115159050919050565b600073ffffffffffffffffffffffffffffffffffffffff82169050919050565b6000819050919050565b600061039b826103a2565b9050919050565b60006103ad82610366565b9050919050565b6103bd8161035a565b81146103c857600080fd5b50565b6103d481610386565b81146103df57600080fd5b5056fea26469706673582212209c7bbd9dc1c70e0eb3c226261fb79364e27987b66137692509750a9a03ddb30d64736f6c63430008000033",
  "immutableReferences": {},
  "source": "// SPDX-License-Identifier: MIT\r\npragma solidity >=0.4.22 <0.9.0;\r\n\r\nimport '@openzeppelin/contracts/token/ERC20/IERC20.sol';\r\n\r\ninterface ContractB {\r\n    function deposit(uint amount) external;\r\n    function withdrwal(uint amount) external;\r\n}\r\n\r\ncontract ContractA {\r\n    IERC20 public token;\r\n    // Contract public ContractB;\r\n\r\n    //setting up the address\r\n    constructor (address _token) {\r\n        token = IERC20(_token);\r\n        // contractB = ContractB(_contractB);\r\n    }\r\n\r\n    function deposit(uint amount) external {\r\n        token.transferFrom(msg.sender, address(this), amount);\r\n        // token.approve(address(contractB), amount);\r\n        // contractB.deposit(amount);\r\n    }\r\n\r\n    function withdraw(uint amount) external {\r\n        // contractB.withdraw(amount);\r\n        token.transfer(msg.sender, amount);\r\n    }\r\n}",
  "sourcePath": "C:/Users/admin/Documents/GitHub/ERC-20--Li-Token-/contracts/ContractA.sol",
  "compiler": {
    "name": "solc",
    "version": "0.8.0+commit.c7dfd78e.Emscripten.clang"
  },
  "schemaVersion": "3.3.3",
  "updatedAt": "2021-03-27T07:24:42.813Z",
  "devdoc": {
    "kind": "dev",
    "methods": {},
    "version": 1
  },
  "userdoc": {
    "kind": "user",
    "methods": {},
    "version": 1
  }
}